:020000040800F2
:1000000000100020D9010008E1010008E501000806
:1000100000000000000000000000000000000000E0
:1000200000000000000000000000000019020008AD
:1000300000000000000000001D020008210200086E
:100040000D130008000000000D1300080D13000838
:100050000D1300080D1300080D1300080D13000800
:10006000000000000D1300080D1300080D13000818
:100070000D1300080D1300080D1300080000000008
:100080000D13000800000000000000000D13000820
:10009000000000000D1300080D1300080D130008E8
:1000A000000000000D130008000000000D13000800
:1000B0000000000000000000000000000000000040
:1000C00030B583B001F0D6F8314B324A1360324A72
:1000D0001360324B324A03E0116819600433043272
:1000E00030498B42F8D32B4B1A682F4B9A4204D1DC
:1000F000294B1A682D4B9A4200D0FEE7244B2C4A1C
:1001000013602C4A13602C4B02E000221A60043367
:100110002A4A9342F9D3264B1B68002B03D1254B67
:100120001B68002B00D0FEE701F0A8F801A8694683
:1001300001F04AF8224B234DED1AAD10002404E0E3
:10014000A2001F4BD35898470134A542F8DC1E4B40
:100150001E4DED1AAD10002404E0A2001A4BD35836
:1001600098470134A542F8DC0198009901F050FA53
:10017000051C174B174CE41AA41004E0013CA20024
:10018000134BD3589847002CF8DC281C00F0F8FFDC
:10019000BABADECA0000002084000020000000205F
:1001A000A020000888000020785634123254769837
:1001B00088000020A801002088000020AC01002059
:1001C00050020008500200085002000850020008C7
:1001D000500200085002000808B5FFF771FFC04642
:1001E00000BEFEE704207146084202D0EFF309800A
:1001F00001E0EFF3088071460A4A104738B5051C44
:100200000C1C044800F0E8FF281C211C01F03AF8FF
:1002100000BEFEE74020000800BEFEE700BEFEE78D
:0802200070470000FD01000819
:10022800A02000080000002088000020A02000086E
:10023800000000100000001088000020AC01002021
:0802480000000010000000108E
:1002500010B5041C00F008FFFA21890001F000FA33
:1002600000F038FA01204042211C002200F0F6F98B
:10027000002010BD08B5064B196810220A431A6009
:100280000020FFF7E5FF00F053FB002008BDC0464B
:1002900000200240014B18687047C0468C000020C7
:1002A00030B583B0041C0023019303689A680321CE
:1002B0000A40012A07D11A68D10706D4DA68110466
:1002C00005D4002204E0002202E0012200E0012225
:1002D000002A37D199681D4A114209D0626C102357
:1002E00013436364A26C01231343A36401202AE037
:1002F000996801220A439A60154B1868154901F064
:10030000AFF9019002E0019B013B0193019B002B9F
:10031000F9D1FFF7BFFF051C0EE0FFF7BBFF431B42
:10032000022B09D9626C102313436364A26C01236E
:100330001343A364012006E023681B68DA07ECD5A9
:10034000002000E0002003B030BDC0461700008050
:100350001C00002040420F0038B5041E00D1ACE064
:10036000436C002B04D183644022835401F08CF849
:10037000636CD80600D59AE023689A68510700D5C7
:1003800095E0616C4E4A0A4002210A4362649A6811
:1003900003210A40012A07D11A68D50706D4DA6872
:1003A000100405D4002204E0002202E0012200E053
:1003B0000122002A0CD1DA6818218A43A1680A4375
:1003C000DA6023681A699200920865682A431A6104
:1003D0002368D9683B4A0A40DA60A0698203E16970
:1003E000CB031343226A51030B43656B012D02D0EB
:1003F0008021490100E000210B43E06803432169AB
:10040000022901D1042100E000210B43256B690082
:100410000B43606A012804D1002A02D180225202D3
:100420001343A26AC221FF318A4202D0E16A0A4321
:1004300013432268D1681943D160A26B802149051A
:100440008A420DD0012A0BD0022A09D0032A07D0F4
:10045000042A05D0052A03D0062A01D0072A0AD18A
:100460002268506907218843506122685069A56B52
:100470002940014351612268D168134A0A409A42D7
:1004800009D10023A364636C032293430122134325
:100490006364002012E0636C122293431022134322
:1004A0006364A26C01231343A364012006E0626C21
:1004B000102313436364012000E0012038BDC046CF
:1004C000FDFEFFFF1902FEFFE7FF3F8310B5041C8E
:1004D00003689B685A0723D44023C35C012B21D0B7
:1004E00001224023C254C369012B02D0FFF7D8FE7A
:1004F00000E00020002816D1626C0B4B13408022D4
:100500005200134363640023A3644022A35423686E
:100510001C221A602368996804220A439A6002E048
:10052000022000E0022010BDFEF0FFFF30B583B0D6
:10053000041C002301934023C35C012B00D180E005
:1005400001224023C25403689A6850076AD43E4A85
:100550004D6895424ED0986A01220D68AA40024328
:100560009A62A36B8022520593421ED0012B1CD0AD
:10057000022B1AD0032B18D0042B16D0052B14D025
:10058000062B12D0072B10D023685A69072002408F
:100590008868904209D058690722904358612368BF
:1005A00058698D682A4002435A610B681A1C103A38
:1005B000012A3DD8254A1268102B02D180231B0442
:1005C00000E011231A43214B1A600B68102B31D124
:1005D0001F4B18681F4901F043F883001B185B008C
:1005E000019302E0019B013B0193019B002BF9D198
:1005F000002022E09A6A01200D68A84082439A6296
:100600000B681A1C103A012A16D8104A1168102BD0
:1006100001D1114A01E0122252420A400B4B1A60EA
:1006200000200AE0626C202313436364012004E08D
:10063000002002E0002000E0002000224023E254DD
:1006400000E0022003B030BD011000000827014087
:100650001C00002040420F00FFFF7FFF70B5002804
:1006600016DAC0B20F230340083B9B089B00124AD6
:100670009B185D6803221040C000FF22141C8440B8
:10068000A54389010A408240281C1043586011E0AC
:1006900082080A4BC0329200D55803242040C00083
:1006A000FF24261C8640B54389010C408440281C49
:1006B0002043D05070BDC04618ED00E000E100E0DE
:1006C0001F23184001238340181C014B18607047FA
:1006D00000E100E001380A4B98420FD8094B5860FE
:1006E000094A106A0002000AC0210906014311628A
:1006F00000229A6007221A60002000E00120704763
:10070000FFFFFF0010E000E000ED00E0042805D14D
:10071000054B196804220A431A6004E0024B1A6868
:1007200004218A431A60704710E000E030B50028C9
:1007300022D02123C35C002B02D100222023C254EB
:1007400021230222C254026814680C490C404168FB
:1007500085682943C56829430569294345692943B3
:1007600085692943C56929432143116000224263F9
:100770000122C254002000E0012030BD0FC0FFFF65
:10078000F0B54F464646C0B483B00023B5E001241F
:100790009C40224000D1AFE04C68022C01D0122CCA
:1007A00011D1DC080834A6003458A04607251D40A6
:1007B000AD000F273C1CAC404746A7430C69AC403A
:1007C000251C3D4335500568AC465C000326351CAE
:1007D000A540ED4367462F40BC464F683E40A640CB
:1007E00067463E4306604E68B04601277F42BC46DE
:1007F000C4446646012E04D94746112F01D0122F5A
:1008000017D187682F40CE68A64037438760476876
:10081000B8460126371C4E46B7404646BE43B04652
:100820004F68FF06FF0F3E1C4F46BE4047463E4303
:100830004660C66835408E68A6403543C5604F683F
:10084000FF0059D5324CA66901252E43A661A46943
:1008500025400195019C9C08A61CB6002D4D76599B
:1008600003251D40AD000F27AF40BE439027FF0575
:10087000B84210D0284FB8420BD0284FB84206D00B
:10088000274FB84201D1032706E0052704E00227DD
:1008900002E0012700E00027AF403D1C3543023451
:1008A000A4001C4EA5511F4C2568D4432E1C264085
:1008B0004F68FF0301D5161C2E431A4D2E606D683C
:1008C0002E1C26404F68BF0301D5161C2E43154D24
:1008D0006E60AD682E1C26404F68FF0201D5161CC5
:1008E0002E43104DAE60ED682C404E68B60201D527
:1008F000141C2C430B4AD46001330A689946141C1B
:10090000DC4000D043E703B00CBC90469946F0BDF4
:1009100000100240000001400004004800080048A8
:10092000000C004800040140436959404161704790
:100930007047C04630B583B0041C0068C0077DD541
:10094000BC4B5B680C221340042B08D0B94B5B688E
:100950001340082B0BD1B74B5B68D90307D5B54BB8
:100960001B689A036AD56368002B67D116E2B14B06
:100970001968B14A0A401A601968B04A0A401A60F8
:10098000FFF788FC051C06E0FFF784FC421BAC4B1C
:100990009A4200D904E2A74B1B689803F4D4636819
:1009A000012B06D1A34B1968802252020A431A6018
:1009B00022E0002B09D19F4B19689F4A0A401A6018
:1009C00019689E4A0A401A6016E0052B0BD1994B14
:1009D00019688022D2020A431A60196880225202E2
:1009E0000A431A6008E0934B1968934A0A401A6058
:1009F0001968924A0A401A60616800290FD0FFF70F
:100A000049FC051C06E0FFF745FC421B8C4B9A4253
:100A100000D9C7E1874B1B689A03F4D50EE0FFF7B6
:100A200039FC051C06E0FFF735FC421B844B9A425B
:100A300000D9B9E17F4B1B689803F4D4216889077A
:100A400050D57C4B5B680C221A4208D0794B5B680E
:100A50001340082B14D1774B5B68DA0310D4754B25
:100A60001B68980703D5E168012900D09EE1714B0E
:100A70001A68F8218A432069C1000A431A6031E0EC
:100A8000E16800291BD06B4B196801220A431A60E8
:100A9000FFF700FC051C05E0FFF7FCFB431B642B84
:100AA00000D985E1634B1B689A07F5D5614B1A683D
:100AB000F8218A432069C1000A431A6012E05D4BA5
:100AC0001A6801218A431A60FFF7E4FB051C05E060
:100AD000FFF7E0FB431B642B00D96BE1554B1B6810
:100AE0009907F5D42268120729D5236A002B13D061
:100AF000504B596A01220A435A62FFF7CBFB051C8F
:100B000005E0FFF7C7FB431B642B00D954E1494BB9
:100B10005B6A9807F5D512E0464B5A6A01218A4371
:100B20005A62FFF7B7FB051C05E0FFF7B3FB431B59
:100B3000642B00D942E13F4B5B6A9907F5D42268E8
:100B4000520700D48BE03B4BD969802252051143F8
:100B5000D961DB691A400192019B3A4B19688022E6
:100B600052000A431A60FFF795FB051C05E0FFF7EA
:100B700091FB431B642B00D922E1324B1B68D80543
:100B8000F5D52C4B1A6A01218A431A621A6A04218C
:100B90008A431A62FFF77EFB051C06E0FFF77AFB2B
:100BA000421B274B9A4200D90CE1224B1B6A990742
:100BB000F4D4A368012B05D11E4B196A01220A4304
:100BC0001A6220E0002B09D11A4B1A6A01218A43CC
:100BD0001A621A6A04218A431A6214E0052B09D1A9
:100BE000144B196A04220A431A62196A01220A4341
:100BF0001A6208E00F4B1A6A01218A431A621A6AC4
:100C000004218A431A62A268002A0FD0FFF742FB30
:100C1000051C06E0FFF73EFB421B094B9A4200D938
:100C2000D2E0044B1B6A9807F4D518E0FFF732FBBB
:100C3000051C10E000100240FFFFFEFFFFFFFBFF5E
:100C40008813000000700040FFF724FB421B684B34
:100C50009A4200D9BAE0674B1B6A9907F4D422681C
:100C6000D20647D56369012B1FD1624B596B042211
:100C70000A435A63596B01220A435A63FFF70AFB7E
:100C8000051C05E0FFF706FB431B642B00D99FE022
:100C9000584B5B6B9807F5D5564B596BF82291432F
:100CA000A069C2000A435A6324E005330CD1514BBA
:100CB0005A6B04218A435A635A6BF8218A43A0690C
:100CC000C1000A435A6315E04A4B596B04220A4398
:100CD0005A635A6B01218A435A63FFF7DBFA051CFA
:100CE00004E0FFF7D7FA431B642B73D8414B5B6BCF
:100CF0009907F6D4636A002B6ED03E4A52680C21E5
:100D00000A40082A6AD0022B34D13A4B19683A4A71
:100D10000A401A60FFF7BEFA051C04E0FFF7BAFAB2
:100D2000431B642B5CD8334B1B689A01F6D4314BC0
:100D3000DA6A0F218A43206B0243DA6259682F4A2C
:100D40001140E06AA26A02430A435A60196880228D
:100D500052040A431A60FFF79DFA041C04E0FFF7EF
:100D600099FA031B642B3DD8224B1B689901F6D5D9
:100D700000203AE01F4B19681F4A0A401A60FFF72B
:100D800089FA041C04E0FFF785FA031B642B2BD8B7
:100D9000184B1B689A01F6D4002026E0012024E0BD
:100DA000032022E0032020E003201EE001201CE0BD
:100DB00003201AE0032018E0032016E0032014E0CB
:100DC000032012E0032010E003200EE003200CE0DB
:100DD00003200AE0032008E0002006E0012004E0F0
:100DE000032002E0032000E0032003B030BDC04632
:100DF0008813000000100240FFFFFFFEFFFFC2FF4C
:100E000070B5051C0C1C7A4B1B68012213408B42E9
:100E100063D2774B19689143214319601B681A40CC
:100E2000A24200D0C7E00168890706D5714B5A6815
:100E3000F0218A4381680A435A602B68DB0700D49B
:100E4000AAE06B68012B04D16A4A126891030CD4A2
:100E5000B3E0022B04D1674A1268910105D4AEE0D9
:100E6000644A1268910700D4ABE0624A51680320DB
:100E700081430B435360FFF70DFA041C6B68012B91
:100E80000ED106E0FFF706FA001B5B4B984200D933
:100E900099E0584B5B680C221340042BF2D17BE0A5
:100EA000022B14D106E0FFF7F5F9001B524B9842D4
:100EB00000D98AE04F4B5B680C221340082BF2D11B
:100EC0006AE0FFF7E7F9001B4B4B98427FD8494B8C
:100ED0005B680C221A42F4D15EE003689B0706D5DA
:100EE000444B5A68F0218A4381680A435A602B6850
:100EF000DB0747D56B68012B04D13E4A126891038A
:100F00000BD466E0022B04D13A4A1268910104D452
:100F100061E0384A126891075FD5364A516803206C
:100F200081430B435360FFF7B5F9061C6B68012B37
:100F30000DD105E0FFF7AEF9801B2F4B98424ED83C
:100F40002C4B5B680C221340042BF3D11AE0022BCC
:100F500013D105E0FFF79EF9801B274B984240D83C
:100F6000244B5B680C221340082BF3D10AE0FFF7F7
:100F700091F9801B204B984235D81E4B5B680C22A0
:100F80001A42F4D11A4B1968012291432143196086
:100F90001B681A40A24228D12B685B0706D5154B67
:100FA0005968164A0A40E9680A435A600020FFF768
:100FB0004FF900201AE0012018E0012016E001207E
:100FC00014E0012012E0032010E003200EE00320D3
:100FD0000CE001200AE0012008E0012006E00320E7
:100FE00004E0032002E0032000E0012070BDC046C1
:100FF000002002400010024088130000FFF8FFFFAD
:1010000010B588B0144C04A8211C102200F07EFBFF
:10101000211C10316846102200F078FB0F4B5B68F2
:101020000C221A40082A13D19A02120F04A98C5CD0
:101030000A4AD26A0F210A406846815CDA0304D565
:10104000074800F00DFB604303E00648604300E002
:10105000034808B010BDC046601F000800100240E1
:1010600000127A0000093D0008B5FFF7C9FF054BE3
:101070005B681B061B0F044AD35CD840034B186007
:1010800008BDC04600100240801F00081C00002060
:1010900030B583B0041C0168C90349D5334B1A6AC3
:1010A00043685A40C0239B001A4241D02F4BD96954
:1010B000802252051143D961DB691A400192019BDC
:1010C0002B4B1968802252000A431A60FFF7E2F89E
:1010D000051C04E0FFF7DEF8431B642B3ED8244BCD
:1010E0001B68D905F6D5214B1A6A224911401D6AA1
:1010F00080204002284318621D6A1F482840186259
:10110000196293070DD5FFF7C5F8051C05E0FFF739
:10111000C1F8421B194B9A4222D8144B1B6A9907FB
:10112000F5D5124B196A134A0A4061680A431A62DC
:101130002268D20706D50D4B1A6B03218A43A1689A
:101140000A431A63226892060CD5084B1A6B1021C9
:101150008A43E1680A431A63002004E0032002E0A6
:10116000032000E0002003B030BDC0460010024064
:1011700000700040FFFCFFFFFFFFFEFF8813000030
:10118000FEE7C04608B50D4B1B68002B02D10C4A88
:101190000A4B1A60094B1B6803300322904318184E
:1011A000084A904206D900F0ABFA0C2303600120F4
:1011B000404202E0014A1060181C08BD9000002067
:1011C000AC010020000C002001230360014B0B60E8
:1011D0007047C046040000200FB400B583B004ABD4
:1011E00004CB01930748802100F0CAFA011E03DDF9
:1011F000044800F03BF8011C081C03B008BC04B014
:101200001847C04698000020F0B54F464646C0B487
:1012100085B0041C8946435C002B1DD10425281C85
:10122000211CABBE041C1AE0351E102D00D9102560
:10123000002304E022786946CA5401330134AB42EA
:10124000F8D36F460022FA54042290464046391CD7
:10125000ABBE071C761B00E00E1C002EE4D14846F6
:1012600005B00CBC90469946F0BDC04608B5FFF7E6
:10127000CBFF08BD08B500F04BF808BD08B500F07D
:1012800077F808BD38B5041C0D1C1548FFF7A4FFFE
:1012900014482168FFF7A0FF13486168FFF79CFF1F
:1012A0001248A168FFF798FF1148E168FFF794FF23
:1012B00010482169FFF790FF0F486169FFF78CFF25
:1012C0000E48A169FFF788FFE1690D48FFF784FF29
:1012D0000C48FFF781FF0C48291CFFF77DFF38BD44
:1012E000901F0008A01F0008B01F0008C01F0008C2
:1012F000D01F0008E01F0008F01F000800200008B1
:10130000102000082020000828200008FEE7000028
:10131000114B196801221143196058680F490140A7
:10132000596018680E490140196018680D4901405C
:10133000196058680C4901405960D96A0F208143EF
:10134000D962186B094901401963596B914359637C
:1013500000229A607047C046001002400CB8FF0897
:10136000FFFFF6FEFFFFFBFFFFFFC0FFECFEFFFFEE
:1013700010B51C4B5B680C221340042B07D0082BC4
:1013800009D0002B1FD1184A184B1A601EE0164ACC
:10139000164B1A601AE0134B5C68A4025A68240FBB
:1013A0000234DB6A0F2119400131D30306D50E4800
:1013B00000F056F944430D4B1C6007E00C4B5C43B6
:1013C0000A4B1C6002E0084A084B1A60054B5B6838
:1013D0001B061B0F074AD25CD2B2044B1968D140DE
:1013E000196010BD0010024000127A001C0000209D
:1013F00000093D000C00002070B584B0204C214B4A
:10140000236080231B0663600023A360E360012543
:10141000256104266661A361E36125626362E3627C
:1014200025636563201CFEF797FF019580235B0110
:10143000029380235B050393201C01A9FFF776F834
:101440000196201C01A9FFF771F807230193201CC6
:1014500001A9FFF76BF809230193201C01A9FFF7ED
:1014600065F810230193201C01A9FFF75FF81123F1
:101470000193201C01A9FFF759F804B070BDC046C4
:101480005C01002000240140F0B587B0041C1B4B18
:1014900002689A4230D11A4B9A698027BF003A43BA
:1014A0009A619B693B400093009B92230193032523
:1014B0000295002603969020C00501A9FFF760F968
:1014C00002230193029503960E4801A9FFF758F9EC
:1014D0000D4D0E4B2B606E60AE608023EB602F6174
:1014E0001B016B612023AB6180239B01EB61281CF6
:1014F000FFF71CF9E5636C6207B0F0BD0024014002
:1015000000100240000400482401002008000240AE
:1015100000B583B0094B59690122114359615B69D8
:101520001A400192019B092000210022FFF796F842
:101530000920FFF7C5F803B000BDC0460010024007
:1015400030B589B0194B59698022D20311435961D2
:1015500059690A400092009A596980229202114307
:10156000596159690A400192019A59698022D2024F
:10157000114359615B691A400292029B0323039352
:1015800001250495002405940694094803A9FFF752
:10159000F7F8402303930495059406949020C00522
:1015A00003A9FFF7EDF809B030BDC04600100240B6
:1015B0000014004830B597B00A23099301250C9513
:1015C00010230D9311950024129409A8FFF7B2F986
:1015D000059506940794089405A80021FFF710FCD0
:1015E0000A4B0193039480239B00029301A8FFF709
:1015F0004FFDFFF739FDFA21890000F031F8FFF7C0
:1016000069F80420FFF782F817B030BD010001002F
:1016100010B5FEF72FFEFFF7CDFFFFF791FFFFF7A5
:1016200077FFFFF7E9FE0B48FEF750FF002802D0D6
:101630000948FFF7D1FD09480221FFF775F9074C6A
:10164000201C0121FFF770F9201C0221FFF76CF923
:10165000F5E7C0465C010020502000080014004857
:10166000002934D00123002210B488422CD3012455
:101670002407A14204D2814202D209011B01F8E7EA
:10168000E400A14204D2814202D249005B00F8E7A3
:10169000884201D3401A1A434C08A04202D3001BCF
:1016A0005C0822438C08A04202D3001B9C08224302
:1016B000CC08A04202D3001BDC082243002803D040
:1016C0001B0901D00909E3E7101C10BC7047002872
:1016D00001D00020C04307B4024802A14018029084
:1016E00003BDC046190000000029F0D003B5FFF784
:1016F000B9FF0EBC4243891A1847C0467047C0461E
:10170000014B18687047C0468000002010B50023C8
:10171000934203D0CC5CC4540133F9E710BD0023DD
:10172000C25C0133002AFBD1581E704730B5051C3E
:101730009BB0141E04DA8B230360012040421DE09D
:1017400082229200684600910491002182818C429D
:1017500000D0611E01225242029105916946CA8160
:10176000281C1A1C1E9B00F07BF8421C01DA8B23FC
:101770002B60002C02D0009900230B701BB030BDF1
:1017800073B5141C054A061C0D1C1068311C00930F
:101790002A1C231CFFF7CAFF76BDC046800000202C
:1017A000F0B58D6885B0071C0C1C03920193AB4209
:1017B00045D390228B89D20013423DD06269032623
:1017C000564309692068F20F401A96190290021CCC
:1017D0000198013212187610964200D2161C381C5D
:1017E0005A050FD5311C00F023FB051E13D0029AB9
:1017F0002169FFF78BFFA289184B13408022134306
:10180000A38111E0321C00F069FB051E0CD1381CCD
:10181000216900F0C5FA0C233B60A38940221343E1
:101820000120A381404217E0029B2561ED1825604D
:101830006661019DF61AA6600198A84200D2019D3A
:101840002A1C2068039900F092FAA2680020531B1A
:10185000A36023685D19256005B0F0BD7FFBFFFF25
:10186000F0B59FB005938B8903900E1C171C1906C9
:101870000FD53269002A0CD1402100F0D9FA30602E
:101880003061002803D103990C230B60C9E0402389
:10189000736106AD00236B6120236B763023AB763A
:1018A0003C1C2378002B03D1E21B029211D003E0F1
:1018B000252BF9D00134F4E70398311C3A1C029B24
:1018C000FFF76EFF013000D1A6E06969029A8B181C
:1018D0006B612378002B00D19EE0012252426A60A6
:1018E0006A4600235B3201342B60EB60AB601370FF
:1018F000AB654E4F2178381C052200F02DFA0028E8
:1019000007D0C71B2B680120B8401843286001345A
:10191000EFE72B68D90603D56A4620215B321170A8
:101920001A0703D56A462B215B32117022782A2AC6
:1019300001D0099B0EE0059A111D12680591002A3D
:1019400001DB099204E05242EA60022213432B6059
:10195000013409E02278303A092A04D80A214B439D
:1019600001349B18F6E7099323782E2B18D163785E
:101970002A2B09D1059B02341A1D1B680592002BE6
:101980000DDA01235B420AE0013400232278303A69
:10199000092A04D80A214B4301349B18F6E7079320
:1019A000234F2178381C032200F0D6F9002806D0F6
:1019B000C71B2B684020B8401843286001342178A9
:1019C0001C480622671C297600F0C6F9002812D0B0
:1019D000194B002B06D1059B07220733934308338D
:1019E000059314E005AB00930398291C321C134B9C
:1019F00000E000BF07E005AB00930398291C321CF0
:101A00000E4B00F091F804900499013104D06A69FA
:101A1000049953186B6143E7B3895A0601D40B98B4
:101A200001E0012040421FB0F0BDC0466A2000081E
:101A3000702000087420000800000000A1170008B2
:101A4000F7B5151C01930A698B68061C0C1C9342A0
:101A500000DA131C221C2B6043321278002A01D0BA
:101A600001332B602068800602D52B6802332B607F
:101A7000216806270F401FD0231C43331B785A1EB2
:101A80009341226892061FD5E11840313020C8707A
:101A9000211C5A1C45310978A21840320233D170FA
:101AA00012E0221C301C019919320123089FB8470B
:101AB000013011D0009F01370097E0682968009F2E
:101AC000431A9F42EDDBD7E7221C301C01994332B9
:101AD000089FB847013002D10120404223E020682E
:101AE00006212B68E26801400025042903D1D51A9C
:101AF000EB43DB171D40A26823699A4201DDD31A2C
:101B0000ED1800270097009FAF420BDA221C301C13
:101B100001991A320123089FB8470130DCD0009F99
:101B20000137EFE70020FEBDF0B58BB006920D1C2B
:101B30000A7E4335079305900C1C109B04956E2A72
:101B400000D1A8E011D8632A22D009D8002A00D1F8
:101B5000B1E0582A00D0C1E045310A707C4D4FE019
:101B6000642A1DD0692A1BD0B8E0732A00D1A6E0F0
:101B700009D86F2A2AD0702A00D0AFE00E68202240
:101B800032430A6037E0752A20D0782A33D0A5E0A6
:101B90001A680D1C111D1960136842352B70A0E0E6
:101BA00021681A680E0603D5111D1960166805E034
:101BB0004806F9D5111D19600021565E644B002EB0
:101BC0003BDA049D2D2276422A7036E021681A689D
:101BD0000E0603D5111D1960166804E04806F9D5F4
:101BE000111D168819605A4B227E039308276F2A0D
:101BF0001ED00A271CE0221C78214532554D117059
:101C000019682268081D03951860160601D50E682C
:101C100002E05006FBD50E88D10702D520231A43D7
:101C200022601027002E03D1226820239A432260CD
:101C3000231C002243331A7001E003930A276368D0
:101C4000A360002B03DB2568042295432560002E4A
:101C500002D1049D002B0ED0049D301C391CFFF7CF
:101C600043FD0398013D435C301C2B70391CFFF78A
:101C7000F7FC061EF1D1082F09D12168C90706D546
:101C8000626823699A4202DC013D30232B70049E76
:101C9000731B23612AE008681A684969050606D49F
:101CA000460604D5101D18601368198003E0101D46
:101CB00018601368196000232361049D16E01A68F8
:101CC000111D19601568281CFFF729FD6368206144
:101CD000984200D923612069606004E0251C4235E8
:101CE0002A7001232361049E00233370079E059808
:101CF0000096211C09AA069BFFF7A2FE013002D123
:101D00000120404221E02A1C059806992369079D7D
:101D1000A8470130F4D02668B60705D4099BE068CF
:101D2000984212DA181C10E00025E0680999431A5D
:101D30009D42F3DA221C0598069919320123079E69
:101D4000B0470130DCD00135EFE70BB0F0BDC04645
:101D50007B2000088C200008C9B28218904204D071
:101D600003788B4202D00130F8E70020704770B54D
:101D7000814201D300230CE08C18A042FAD28518CE
:101D8000131C013B0BD351426618F65C6918CE5404
:101D9000F7E7934203D0CC5CC4540133F9E770BD3C
:101DA00030B5002940D004390B68002B00DAC9187F
:101DB0001E4A1368141C002B02D14B60116033E0E3
:101DC00099420FD208680A189A4205D113685268DE
:101DD000C01808604A6000E04B60216024E08A423D
:101DE00003D8131C5A68002AF9D11D685C198C426B
:101DF0000BD10968691858181960904214D11468F9
:101E00005268091919605A600EE08C4202D90C23FD
:101E1000036009E008680C18944203D11468526802
:101E2000001908604A60596030BDC0461C0100209E
:101E300070B50323CD1C9D430835061C0C2D01D223
:101E40000C2505E0002D03DA0C233360002040E070
:101E50008D42F9D31F4B1C681A1C211C002913D07A
:101E60000868431B0DD40B2B02D90B60CC181EE065
:101E70008C4202D1636813601AE0486860600C1CF1
:101E800016E00C1C4968E9E7134C2068002803D1D0
:101E9000301C00F049F82060301C291C00F044F888
:101EA000431CD1D0C41C03239C4384420AD1256027
:101EB000201C0B300722231D9043C31A09D05A421D
:101EC000E25006E0211A301C00F02EF80130EED16D
:101ED000BAE770BD1C01002018010020F8B5061CEF
:101EE0000C1C151C002904D1111CFFF7A1FF041CB8
:101EF00018E0002A03D1FFF753FF2C1C12E000F07A
:101F000025F8A8420ED2301C291CFFF791FF071EAE
:101F100007D0211C2A1CFFF7F9FB301C211CFFF7FE
:101F20003FFF3C1C201CF8BD38B5074C0023051CA6
:101F3000081C2360FFF726F9431C03D12368002BFC
:101F400000D02B6038BDC0462001002004390B684A
:101F5000181F002B02DAC8581B18181F7047000002
:101F600002030405060708090A0B0C0D0E0F1010DA
:101F70000102030405060708090A0B0C0D0E0F10D9
:101F8000000000000102030401020304060708091F
:101F9000537461636B206672616D653A0A000000DC
:101FA000205230203D2020253038580A0000000003
:101FB000205231203D2020253038580A00000000F2
:101FC000205232203D2020253038580A00000000E1
:101FD000205233203D2020253038580A00000000D0
:101FE00020523132203D20253038580A00000000B0
:101FF000204C52203D2020253038580A0000000097
:10200000205043203D2020253038580A0000000091
:1020100020505352203D20253038580A000000003F
:102020004D6973630A000000204C522F4558435FEE
:1020300052455455524E3D20253038580A00000074
:102040005B486172644661756C745D0A0000000053
:1020500048414C5F4144435F537461727420666130
:10206000696C65640A0000004300232D302B2000BA
:10207000686C4C0065666745464700303132333442
:1020800035363738394142434445460030313233E2
:0D20900034353637383961626364656600A7
:1020A0007856341294000020000000000000000068
:1020B00000000000010203040607080900127A006C
:1020C0000000000000000000000000000000000010
:1020D0000000000000000000000000000000000000
:1020E0006820000800000000000000000000000060
:1020F00000000000000000000000000000000000E0
:1021000000000000000000000000000000000000CF
:1021100000000000000000000000000000000000BF
:082120002000002032547698E3
:04000005080000C12E
:00000001FF
